{
  "contractName": "TodoList",
  "abi": [
    {
      "constant": true,
      "inputs": [],
      "name": "taskCount",
      "outputs": [
        {
          "internalType": "uint256",
          "name": "",
          "type": "uint256"
        }
      ],
      "payable": false,
      "stateMutability": "view",
      "type": "function"
    }
  ],
  "bytecode": "0x608060405260008055348015601357600080fd5b506080806100226000396000f3fe6080604052348015600f57600080fd5b506004361060285760003560e01c8063b6cb58a514602d575b600080fd5b60336045565b60408051918252519081900360200190f35b6000548156fea265627a7a72315820f134caeae4b2c502528697bcf90eafe425e41390dd3c961d93eca220444a6e3064736f6c63430005100032",
  "source": "// SPDX-License-Identifier: UNLICENSED \r\npragma solidity 0.5.16;\r\n\r\ncontract TodoList {\r\n    // State variables\r\n    // They are written to the blockchain\r\n    uint public taskCount = 0;\r\n\r\n}",
  "sourcePath": "C:\\Users\\toluo\\Desktop\\New folder\\Msc HDS Project\\BlockChainApp\\test1\\contracts\\TodoList.sol",
  "compiler": {
    "name": "solc",
    "version": "0.5.16+commit.9c3226ce.Emscripten.clang"
  },
  "schemaVersion": "3.4.16",
  "updatedAt": "2024-08-01T20:48:29.939Z",
  "networkType": "ethereum",
  "devdoc": {
    "methods": {}
  },
  "userdoc": {
    "methods": {}
  }
}